{
  "_format": "hh-sol-artifact-1",
  "contractName": "Web3Boilerplate",
  "sourceName": "contracts/Web3BoilerPlate.sol",
  "abi": [
    {
      "anonymous": false,
      "inputs": [
        {
          "indexed": false,
          "internalType": "uint256",
          "name": "id",
          "type": "uint256"
        },
        {
          "indexed": false,
          "internalType": "string",
          "name": "name",
          "type": "string"
        },
        {
          "indexed": false,
          "internalType": "address",
          "name": "username",
          "type": "address"
        }
      ],
      "name": "Registered",
      "type": "event"
    },
    {
      "inputs": [
        {
          "internalType": "address",
          "name": "",
          "type": "address"
        }
      ],
      "name": "addressToUser",
      "outputs": [
        {
          "internalType": "uint256",
          "name": "id",
          "type": "uint256"
        },
        {
          "internalType": "string",
          "name": "name",
          "type": "string"
        },
        {
          "internalType": "address",
          "name": "username",
          "type": "address"
        }
      ],
      "stateMutability": "view",
      "type": "function"
    },
    {
      "inputs": [
        {
          "internalType": "address",
          "name": "username",
          "type": "address"
        }
      ],
      "name": "getUser",
      "outputs": [
        {
          "components": [
            {
              "internalType": "uint256",
              "name": "id",
              "type": "uint256"
            },
            {
              "internalType": "string",
              "name": "name",
              "type": "string"
            },
            {
              "internalType": "address",
              "name": "username",
              "type": "address"
            }
          ],
          "internalType": "struct Web3Boilerplate.User",
          "name": "",
          "type": "tuple"
        }
      ],
      "stateMutability": "view",
      "type": "function"
    },
    {
      "inputs": [
        {
          "internalType": "string",
          "name": "name",
          "type": "string"
        }
      ],
      "name": "userRegistration",
      "outputs": [],
      "stateMutability": "nonpayable",
      "type": "function"
    }
  ],
  "bytecode": "0x608060405234801561001057600080fd5b50610ae9806100206000396000f3fe608060405234801561001057600080fd5b50600436106100415760003560e01c80636f77926b1461004657806378301afd14610076578063edf5388614610092575b600080fd5b610060600480360381019061005b91906105ea565b6100c4565b60405161006d9190610728565b60405180910390f35b610090600480360381019061008b919061087f565b61020f565b005b6100ac60048036038101906100a791906105ea565b6103cc565b6040516100bb93929190610930565b60405180910390f35b6100cc61049e565b600160008373ffffffffffffffffffffffffffffffffffffffff1673ffffffffffffffffffffffffffffffffffffffff168152602001908152602001600020604051806060016040529081600082015481526020016001820180546101309061099d565b80601f016020809104026020016040519081016040528092919081815260200182805461015c9061099d565b80156101a95780601f1061017e576101008083540402835291602001916101a9565b820191906000526020600020905b81548152906001019060200180831161018c57829003601f168201915b505050505081526020016002820160009054906101000a900473ffffffffffffffffffffffffffffffffffffffff1673ffffffffffffffffffffffffffffffffffffffff1673ffffffffffffffffffffffffffffffffffffffff16815250509050919050565b6000600160003373ffffffffffffffffffffffffffffffffffffffff1673ffffffffffffffffffffffffffffffffffffffff1681526020019081526020016000206000015414610294576040517f08c379a000000000000000000000000000000000000000000000000000000000815260040161028b90610a1b565b60405180910390fd5b600080600081546102a490610a6a565b919050819055905060405180606001604052808281526020018381526020013373ffffffffffffffffffffffffffffffffffffffff16815250600160003373ffffffffffffffffffffffffffffffffffffffff1673ffffffffffffffffffffffffffffffffffffffff1681526020019081526020016000206000820151816000015560208201518160010190805190602001906103429291906104d5565b5060408201518160020160006101000a81548173ffffffffffffffffffffffffffffffffffffffff021916908373ffffffffffffffffffffffffffffffffffffffff1602179055509050507fca52e62c367d81bb2e328eb795f7c7ba24afb478408a26c0e201d155c449bc4a8183336040516103c093929190610930565b60405180910390a15050565b60016020528060005260406000206000915090508060000154908060010180546103f59061099d565b80601f01602080910402602001604051908101604052809291908181526020018280546104219061099d565b801561046e5780601f106104435761010080835404028352916020019161046e565b820191906000526020600020905b81548152906001019060200180831161045157829003601f168201915b5050505050908060020160009054906101000a900473ffffffffffffffffffffffffffffffffffffffff16905083565b60405180606001604052806000815260200160608152602001600073ffffffffffffffffffffffffffffffffffffffff1681525090565b8280546104e19061099d565b90600052602060002090601f016020900481019282610503576000855561054a565b82601f1061051c57805160ff191683800117855561054a565b8280016001018555821561054a579182015b8281111561054957825182559160200191906001019061052e565b5b509050610557919061055b565b5090565b5b8082111561057457600081600090555060010161055c565b5090565b6000604051905090565b600080fd5b600080fd5b600073ffffffffffffffffffffffffffffffffffffffff82169050919050565b60006105b78261058c565b9050919050565b6105c7816105ac565b81146105d257600080fd5b50565b6000813590506105e4816105be565b92915050565b600060208284031215610600576105ff610582565b5b600061060e848285016105d5565b91505092915050565b6000819050919050565b61062a81610617565b82525050565b600081519050919050565b600082825260208201905092915050565b60005b8381101561066a57808201518184015260208101905061064f565b83811115610679576000848401525b50505050565b6000601f19601f8301169050919050565b600061069b82610630565b6106a5818561063b565b93506106b581856020860161064c565b6106be8161067f565b840191505092915050565b6106d2816105ac565b82525050565b60006060830160008301516106f06000860182610621565b50602083015184820360208601526107088282610690565b915050604083015161071d60408601826106c9565b508091505092915050565b6000602082019050818103600083015261074281846106d8565b905092915050565b600080fd5b600080fd5b7f4e487b7100000000000000000000000000000000000000000000000000000000600052604160045260246000fd5b61078c8261067f565b810181811067ffffffffffffffff821117156107ab576107aa610754565b5b80604052505050565b60006107be610578565b90506107ca8282610783565b919050565b600067ffffffffffffffff8211156107ea576107e9610754565b5b6107f38261067f565b9050602081019050919050565b82818337600083830152505050565b600061082261081d846107cf565b6107b4565b90508281526020810184848401111561083e5761083d61074f565b5b610849848285610800565b509392505050565b600082601f8301126108665761086561074a565b5b813561087684826020860161080f565b91505092915050565b60006020828403121561089557610894610582565b5b600082013567ffffffffffffffff8111156108b3576108b2610587565b5b6108bf84828501610851565b91505092915050565b6108d181610617565b82525050565b600082825260208201905092915050565b60006108f382610630565b6108fd81856108d7565b935061090d81856020860161064c565b6109168161067f565b840191505092915050565b61092a816105ac565b82525050565b600060608201905061094560008301866108c8565b818103602083015261095781856108e8565b90506109666040830184610921565b949350505050565b7f4e487b7100000000000000000000000000000000000000000000000000000000600052602260045260246000fd5b600060028204905060018216806109b557607f821691505b602082108114156109c9576109c861096e565b5b50919050565b7f7573657220616c72656164792072656769737465726564000000000000000000600082015250565b6000610a056017836108d7565b9150610a10826109cf565b602082019050919050565b60006020820190508181036000830152610a34816109f8565b9050919050565b7f4e487b7100000000000000000000000000000000000000000000000000000000600052601160045260246000fd5b6000610a7582610617565b91507fffffffffffffffffffffffffffffffffffffffffffffffffffffffffffffffff821415610aa857610aa7610a3b565b5b60018201905091905056fea26469706673582212200ff07eb788476820821a76118bc3b0c861209af9266abee53cb457493bdfa4af64736f6c63430008090033",
  "linkReferences": {},
  "deployedLinkReferences": {}
}